{
  "contractName": "Election",
  "abi": [
    {
      "constant": true,
      "inputs": [
        {
          "name": "",
          "type": "uint256"
        }
      ],
      "name": "kandidat",
      "outputs": [
        {
          "name": "id",
          "type": "uint256"
        },
        {
          "name": "name",
          "type": "string"
        },
        {
          "name": "voteCount",
          "type": "uint256"
        }
      ],
      "payable": false,
      "stateMutability": "view",
      "type": "function",
      "signature": "0x657c3ef1"
    },
    {
      "constant": true,
      "inputs": [],
      "name": "kandidatCount",
      "outputs": [
        {
          "name": "",
          "type": "uint256"
        }
      ],
      "payable": false,
      "stateMutability": "view",
      "type": "function",
      "signature": "0x7bf79ee2"
    },
    {
      "constant": true,
      "inputs": [
        {
          "name": "",
          "type": "address"
        }
      ],
      "name": "voters",
      "outputs": [
        {
          "name": "",
          "type": "bool"
        }
      ],
      "payable": false,
      "stateMutability": "view",
      "type": "function",
      "signature": "0xa3ec138d"
    },
    {
      "inputs": [],
      "payable": false,
      "stateMutability": "nonpayable",
      "type": "constructor",
      "signature": "constructor"
    },
    {
      "anonymous": false,
      "inputs": [
        {
          "indexed": true,
          "name": "_kandidatId",
          "type": "uint256"
        }
      ],
      "name": "votedEvent",
      "type": "event",
      "signature": "0xfff3c900d938d21d0990d786e819f29b8d05c1ef587b462b939609625b684b16"
    },
    {
      "constant": false,
      "inputs": [
        {
          "name": "_kandidatID",
          "type": "uint256"
        }
      ],
      "name": "vote",
      "outputs": [],
      "payable": false,
      "stateMutability": "nonpayable",
      "type": "function",
      "signature": "0x0121b93f"
    }
  ],
  "bytecode": "0x608060405234801561001057600080fd5b5061005e6040805190810160405280600c81526020017f4a616b612053656d62756e6700000000000000000000000000000000000000008152506100b0640100000000026401000000009004565b6100ab6040805190810160405280600a81526020017f4a6f6b6f204b6572656e000000000000000000000000000000000000000000008152506100b0640100000000026401000000009004565b6101d1565b60026000815480929190600101919050555060606040519081016040528060025481526020018281526020016000815250600080600254815260200190815260200160002060008201518160000155602082015181600101908051906020019061011b92919061012c565b506040820151816002015590505050565b828054600181600116156101000203166002900490600052602060002090601f016020900481019282601f1061016d57805160ff191683800117855561019b565b8280016001018555821561019b579182015b8281111561019a57825182559160200191906001019061017f565b5b5090506101a891906101ac565b5090565b6101ce91905b808211156101ca5760008160009055506001016101b2565b5090565b90565b61042e806101e06000396000f3fe608060405260043610610062576000357c0100000000000000000000000000000000000000000000000000000000900463ffffffff1680630121b93f14610067578063657c3ef1146100a25780637bf79ee214610164578063a3ec138d1461018f575b600080fd5b34801561007357600080fd5b506100a06004803603602081101561008a57600080fd5b81019080803590602001909291905050506101f8565b005b3480156100ae57600080fd5b506100db600480360360208110156100c557600080fd5b810190808035906020019092919050505061031a565b6040518084815260200180602001838152602001828103825284818151815260200191508051906020019080838360005b8381101561012757808201518184015260208101905061010c565b50505050905090810190601f1680156101545780820380516001836020036101000a031916815260200191505b5094505050505060405180910390f35b34801561017057600080fd5b506101796103dc565b6040518082815260200191505060405180910390f35b34801561019b57600080fd5b506101de600480360360208110156101b257600080fd5b81019080803573ffffffffffffffffffffffffffffffffffffffff1690602001909291905050506103e2565b604051808215151515815260200191505060405180910390f35b600160003373ffffffffffffffffffffffffffffffffffffffff1673ffffffffffffffffffffffffffffffffffffffff16815260200190815260200160002060009054906101000a900460ff1615151561025157600080fd5b60008111801561026357506002548111155b151561026e57600080fd5b60018060003373ffffffffffffffffffffffffffffffffffffffff1673ffffffffffffffffffffffffffffffffffffffff16815260200190815260200160002060006101000a81548160ff02191690831515021790555060008082815260200190815260200160002060020160008154809291906001019190505550807ffff3c900d938d21d0990d786e819f29b8d05c1ef587b462b939609625b684b1660405160405180910390a250565b6000602052806000526040600020600091509050806000015490806001018054600181600116156101000203166002900480601f0160208091040260200160405190810160405280929190818152602001828054600181600116156101000203166002900480156103cc5780601f106103a1576101008083540402835291602001916103cc565b820191906000526020600020905b8154815290600101906020018083116103af57829003601f168201915b5050505050908060020154905083565b60025481565b60016020528060005260406000206000915054906101000a900460ff168156fea165627a7a72305820af74190a792191d912f30a9db954b1464f99e72c0027dbd54bef5aad9b8bb3900029",
  "source": "// SPDX-License-Identifier: MIT\npragma solidity >=0.4.22 <0.8.0;\n\ncontract Election {\n    // Membuat model kandidat\n    struct Candidate {\n        uint id;\n        string name;\n        uint voteCount;\n    }\n\n    mapping(uint => Candidate) public kandidat; // Menyimpan kandidat yang terdaftar\n    mapping(address => bool) public voters; // Menyimpan pemilih yang sudah memilih\n\n    uint256 public kandidatCount; // Menyimpan jumlah kandidat\n\n    event votedEvent(uint indexed _kandidatId);\n\n    constructor() public {\n        tambahKandidat(\"Jaka Sembung\");\n        tambahKandidat(\"Joko Keren\");\n    }\n\n    function tambahKandidat(string memory _name) private {\n        kandidatCount++;\n        kandidat[kandidatCount] = Candidate(kandidatCount, _name, 0);\n    }\n\n    function vote(uint _kandidatID) public {\n        // Pastikan pemilih belum memilih\n        require(!voters[msg.sender]);\n\n        // Pastikan kandidat yang dipilih valid\n        require(_kandidatID > 0 && _kandidatID <= kandidatCount);\n\n        // Mengubah kondisi voters menjadi true\n        voters[msg.sender] = true;\n\n        // Update kandidat voteCount\n        kandidat[_kandidatID].voteCount++;\n\n        // Trigger voted event\n        emit votedEvent(_kandidatID);\n    }\n}\n\n// Smoke test (truffle console) => Election.deployed().then(function(i) { app=i })\n",
  "sourcePath": "/home/ardias/Desktop/Development/Blockchain/election/contracts/Election.sol",
  "compiler": {
    "name": "solc",
    "version": "0.5.0+commit.1d4f565a.Emscripten.clang"
  },
  "schemaVersion": "3.0.2",
  "updatedAt": "2022-10-21T02:33:36.754Z",
  "devdoc": {
    "methods": {}
  },
  "userdoc": {
    "methods": {}
  }
}